:100000000C942A000C9447000C9447000C94470071
:100010000C940D050C94E4040C9447000C94BB0460
:100020000C9447000C9492040C9469040C944004C2
:100030000C9447000C9447000C9447000C94470024
:100040000C9447000C9447000C9447000C94470014
:100050000C94470011241FBECFE5D8E0DEBFCDBF12
:1000600010E0A0E6B0E0E2E6FCE002C005900D92F0
:10007000A238B107D9F720E0A2E8B0E001C01D9294
:10008000AA39B207E1F70E9499010C942F060C944B
:100090000000CF93DF93C0E0D0E0FE01EE0FFF1F22
:1000A000E05AFF4F6181808140E00E94D301219698
:1000B000C430D10591F7DF91CF910895853080F458
:1000C0006115710579F0AB01E82FF0E0EE0FFF1F2D
:1000D000E05AFF4F618180810E94D90280E008953B
:1000E00081E0089582E00895EF92FF920F931F93AD
:1000F000CF93DF938B01E82EF12CE701CC0FDD1FAE
:10010000CE0DDF1DCC0FDD1FC859DF4F41E06981E7
:1001100088810E94D30140E0698188810E94560253
:1001200041E06B818A810E94D30140E06B818A812A
:100130000E94560241E06D818C810E94D30140E013
:100140006D818C810E945602C8010E949403C801EF
:100150000E940004F701EE57FF4F1082DF91CF910C
:100160001F910F91FF90EF9008950F931F93CF93DE
:10017000DF93833040F5C82FD0E0FE01EE57FF4FEC
:100180008081882311F18E01000F111F0C0F1D1F9C
:10019000000F111F08591F4F40E0F8016181808155
:1001A0000E94560240E0F801638182810E9456025B
:1001B00040E0F801658184810E945602CE57DF4FEE
:1001C000188280E003C081E001C088E0DF91CF9118
:1001D0001F910F910895EF92FF920F931F93CF936A
:1001E000DF93833008F075C08B01C82FD0E0FE018B
:1001F000EE57FF4F8081813009F44CC0FE01EE0FB5
:10020000FF1FEC0FFD1FEE0FFF1FE859FF4F40E0EF
:10021000618180810E945602FE01EC57FF4F808170
:10022000811119C07E01EE0CFF1CEC0EFD1EC701F2
:10023000880F991F9C0128593F4F790140E0F9012F
:10024000658184810E94560241E0F70163818281C9
:100250000E94560218C07E01EE0CFF1CEC0EFD1E23
:10026000C701880F991F9C0128593F4F790140E031
:10027000F901638182810E94560241E0F7016581A4
:1002800084810E94560281E0FE01EE57FF4F808379
:10029000F12C03C06894FF24F2F8CE01880F991F57
:1002A000FC01EC0FFD1FEE0FFF1FE859FF4F2081EF
:1002B000F8012383C80FD91FCC0FDD1FC859DF4FAA
:1002C00089818283C8010E940004C8010E941E0423
:1002D00002C0FF24F3948F2DDF91CF911F910F91D6
:1002E000FF90EF900895EF92FF920F931F93CF939B
:1002F0008330B0F4082F10E0F801EC57FF4F9081E5
:10030000913081F07B010E94B500F801EC57FF4F5E
:1003100081E08083B701802F0E94EB0080E003C062
:1003200081E001C080E2CF911F910F91FF90EF908B
:100330000895CF93DF9300D000D000D0CDB7DEB7C3
:10034000198283E08A831B821C821D820E944900DD
:10035000BE016F5F7F4F80E00E9474001E82BE016D
:100360006A5F7F4F80E090E00E945E008E81813066
:10037000B1F78D81865F8D83BE016F5F7F4F80E017
:100380000E947301BE016F5F7F4F80E00E94EB000F
:10039000BE016A5F7F4F80E090E00E945E008E8128
:1003A0008130B1F3DCCF683008F078C04130C1F55E
:1003B000813091F028F08230D9F0833029F170C07B
:1003C0002AB381E090E002C0880F991F6A95E2F796
:1003D000822B8ABB80E0089527B381E090E002C0C1
:1003E000880F991F6A95E2F7822B87BB80E00895FA
:1003F00024B381E090E002C0880F991F6A95E2F76C
:10040000822B84BB80E0089521B381E090E002C09C
:10041000880F991F6A95E2F7822B81BB80E00895CF
:10042000411140C0813099F028F08230E9F08330EA
:1004300041F13AC02AB381E090E002C0880F991FD1
:100440006A95E2F7809582238ABB80E0089527B3FE
:1004500081E090E002C0880F991F6A95E2F78095CD
:10046000822387BB80E0089524B381E090E002C03E
:10047000880F991F6A95E2F78095822384BB80E0FC
:10048000089521B381E090E002C0880F991F6A951A
:10049000E2F78095822381BB80E0089581E0089592
:1004A00081E0089581E0089581E00895683008F0C2
:1004B00078C04130C1F5813091F028F08230D9F018
:1004C000833029F170C02BB381E090E002C0880F27
:1004D000991F6A95E2F7822B8BBB80E0089528B3C1
:1004E00081E090E002C0880F991F6A95E2F7822BA5
:1004F00088BB80E0089525B381E090E002C0880FBA
:10050000991F6A95E2F7822B85BB80E0089522B39C
:1005100081E090E002C0880F991F6A95E2F7822B74
:1005200082BB80E00895411140C0813099F028F0ED
:100530008230E9F0833041F13AC02BB381E090E0A2
:1005400002C0880F991F6A95E2F7809582238BBBC2
:1005500080E0089528B381E090E002C0880F991FE1
:100560006A95E2F78095822388BB80E0089525B3E1
:1005700081E090E002C0880F991F6A95E2F78095AC
:10058000822385BB80E0089522B381E090E002C021
:10059000880F991F6A95E2F78095822382BB80E0DD
:1005A000089581E0089581E0089581E0089581E053
:1005B000089541155105D1F16830D0F5813091F0A1
:1005C00028F08230D9F0833029F134C089B390E02B
:1005D00002C0959587956A95E2F78170FA0180834C
:1005E00080E0089586B390E002C0959587956A955E
:1005F000E2F78170FA01808380E0089583B390E090
:1006000002C0959587956A95E2F78170FA0180831B
:1006100080E0089580B390E002C0959587956A9533
:10062000E2F78170FA01808380E0089581E0089507
:1006300081E0089581E008956830C0F5813091F03F
:1006400028F08230D9F0833029F132C02BB381E019
:1006500090E002C0880F991F6A95E2F782278BBB52
:1006600080E0089528B381E090E002C0880F991FD0
:100670006A95E2F7822788BB80E0089525B381E080
:1006800090E002C0880F991F6A95E2F7822785BB28
:1006900080E0089522B381E090E002C0880F991FA6
:1006A0006A95E2F7822782BB80E0089581E0089591
:1006B00081E0089580918700811107C080918900B1
:1006C0008CBF81E08093870007C0909189008EEFF6
:1006D000891B8CBF1092870080918900882331F09C
:1006E000EFE8F0E0628183810E941C03089580910D
:1006F0008800882331F0EAE8F0E0628183810E947B
:100700001C0380918600811107C08091880083BD01
:1007100081E0809386000895909188008EEF891B78
:1007200083BD109286000895CF93DF93009709F45C
:100730005DC0EC01888181112DC02C81EFE8F0E0D3
:1007400024838A8182838B81838330E0AFEFB0E0A2
:100750000E940C0624E630E040E050E00E94EA05EA
:10076000209389008981EBE7F0E086838881848388
:10077000CF010E94360581113BC060917F008AE560
:1007800093E00E94A20541E06A818B810E94D3011F
:1007900080E033C0823071F58C81EAE8F0E0848338
:1007A0009A8192839B8193832FEF829FC0011124B2
:1007B00064E670E00E94D605609388008981E4E7D2
:1007C000F0E0868388818483CF010E943605811101
:1007D00013C06091780087E793E00E94A20541E092
:1007E0006A818B810E94D30180E007C081E005C04F
:1007F00081E003C081E001C081E0DF91CF910895E5
:100800000097B1F0FC018081811107C08BE790E077
:100810000E94B705882349F00DC0823031F484E787
:1008200090E00E94B705811107C0789480E0089598
:1008300081E0089581E0089581E00895F894FC0135
:10084000208121110CC08481FFEF8F9FC0011124F2
:1008500064E670E00E94D605609389000EC02230E5
:1008600061F4FC018481FFEF8F9FC001112464E6D5
:1008700070E00E94D60560938800789480E0089527
:100880001F920F920FB60F9211242F933F934F9305
:100890005F936F937F938F939F93AF93BF93EF93E8
:1008A000FF93E0919800F0919900309709F0099535
:1008B000FF91EF91BF91AF919F918F917F916F9138
:1008C0005F914F913F912F910F900FBE0F901F900E
:1008D00018951F920F920FB60F9211242F933F93EA
:1008E0004F935F936F937F938F939F93AF93BF9338
:1008F000EF93FF93E0919800F0919900309709F001
:100900000995FF91EF91BF91AF919F918F917F9149
:100910006F915F914F913F912F910F900FBE0F906C
:100920001F9018951F920F920FB60F9211242F93BC
:100930003F934F935F936F937F938F939F93AF9367
:10094000BF93EF93FF93E0919600F091970030975B
:1009500009F00995FF91EF91BF91AF919F918F9110
:100960007F916F915F914F913F912F910F900FBEAB
:100970000F901F9018951F920F920FB60F9211248F
:100980002F933F934F935F936F937F938F939F9397
:10099000AF93BF93EF93FF93E0919600F091970090
:1009A000309709F00995FF91EF91BF91AF919F9119
:1009B0008F917F916F915F914F913F912F910F9008
:1009C0000FBE0F901F9018951F920F920FB60F92A7
:1009D00011242F933F934F935F936F937F938F9344
:1009E0009F93AF93BF93EF93FF93E0919400F091A7
:1009F0009500309709F00995FF91EF91BF91AF9164
:100A00009F918F917F916F915F914F913F912F9126
:100A10000F900FBE0F901F9018951F920F920FB658
:100A20000F9211242F933F934F935F936F937F9374
:100A30008F939F93AF93BF93EF93FF93E0919400B5
:100A4000F0919500309709F00995FF91EF91BF91D2
:100A5000AF919F918F917F916F915F914F913F9156
:100A60002F910F900FBE0F901F901895FC0184815D
:100A7000813001F120F0823009F441C05BC012BE28
:100A800013BE1CBE808182BF8581882319F081300E
:100A900041F052C080E883BF89B7816089BF80E0A0
:100AA000089582818CBF88E883BF89B7826089BF3F
:100AB00080E008951DBC1CBC1BBC1ABC1FBC1EBC26
:100AC000808191819DBD8CBD8581882319F0813005
:100AD00041F034C08CE08FBD89B7846089BF80E06D
:100AE0000895828193819BBD8ABD8CE08FBD8EB5B8
:100AF00088608EBD89B7806189BF80E0089514BC8D
:100B000015BC13BC808184BD8581882319F0813098
:100B100041F016C080E885BD89B7806489BF80E058
:100B20000895828183BD88E885BD89B7806889BFC3
:100B300080E0089581E0089582E0089582E00895BC
:100B400081E00895613049F018F0623059F008955D
:100B500090939900809398000895909397008093C4
:100B60009600089590939500809394000895FC0159
:100B70009481913059F018F0923079F015C083B714
:100B8000887F9681892B83BF80E008958EB5887F0A
:100B90009681892B8EBD80E0089585B5887F9681EA
:100BA000892B85BD80E0089581E0089597FB072E8D
:100BB00016F4009407D077FD09D00E941B0607FCAD
:100BC00005D03EF4909581959F4F0895709561955D
:100BD0007F4F0895A1E21A2EAA1BBB1BFD010DC079
:100BE000AA1FBB1FEE1FFF1FA217B307E407F507DD
:100BF00020F0A21BB30BE40BF50B661F771F881FB9
:100C0000991F1A9469F760957095809590959B014E
:100C1000AC01BD01CF010895A29FB001B39FC001F7
:100C2000A39F700D811D1124911DB29F700D811D18
:100C30001124911D0895AA1BBB1B51E107C0AA1FD7
:100C4000BB1FA617B70710F0A61BB70B881F991F6D
:100C50005A95A9F780959095BC01CD010895F89417
:020C6000FFCFC4
:100C62000200020102020203000000010002010070
:100C7200010101020000000000010000000000006C
:020C820001006F
:00000001FF
